{
  "contractName": "ERC20",
  "abi": [
    {
      "inputs": [
        {
          "internalType": "string",
          "name": "_tokenName",
          "type": "string"
        },
        {
          "internalType": "string",
          "name": "_tokenSymbol",
          "type": "string"
        },
        {
          "internalType": "uint8",
          "name": "_tokenDecimals",
          "type": "uint8"
        },
        {
          "internalType": "uint256",
          "name": "_tokenTotalSupply",
          "type": "uint256"
        }
      ],
      "stateMutability": "nonpayable",
      "type": "constructor"
    },
    {
      "anonymous": false,
      "inputs": [
        {
          "indexed": true,
          "internalType": "address",
          "name": "owner",
          "type": "address"
        },
        {
          "indexed": true,
          "internalType": "address",
          "name": "spender",
          "type": "address"
        },
        {
          "indexed": false,
          "internalType": "uint256",
          "name": "value",
          "type": "uint256"
        }
      ],
      "name": "Approval",
      "type": "event"
    },
    {
      "anonymous": false,
      "inputs": [
        {
          "indexed": true,
          "internalType": "address",
          "name": "from",
          "type": "address"
        },
        {
          "indexed": true,
          "internalType": "address",
          "name": "to",
          "type": "address"
        },
        {
          "indexed": false,
          "internalType": "uint256",
          "name": "value",
          "type": "uint256"
        }
      ],
      "name": "Transfer",
      "type": "event"
    },
    {
      "inputs": [],
      "name": "name",
      "outputs": [
        {
          "internalType": "string",
          "name": "",
          "type": "string"
        }
      ],
      "stateMutability": "view",
      "type": "function"
    },
    {
      "inputs": [],
      "name": "symbol",
      "outputs": [
        {
          "internalType": "string",
          "name": "",
          "type": "string"
        }
      ],
      "stateMutability": "view",
      "type": "function"
    },
    {
      "inputs": [],
      "name": "totalSupply",
      "outputs": [
        {
          "internalType": "uint256",
          "name": "",
          "type": "uint256"
        }
      ],
      "stateMutability": "view",
      "type": "function"
    },
    {
      "inputs": [],
      "name": "decimals",
      "outputs": [
        {
          "internalType": "uint8",
          "name": "",
          "type": "uint8"
        }
      ],
      "stateMutability": "view",
      "type": "function"
    },
    {
      "inputs": [
        {
          "internalType": "address",
          "name": "_account",
          "type": "address"
        }
      ],
      "name": "balanceOf",
      "outputs": [
        {
          "internalType": "uint256",
          "name": "",
          "type": "uint256"
        }
      ],
      "stateMutability": "view",
      "type": "function"
    },
    {
      "inputs": [
        {
          "internalType": "address",
          "name": "_owner",
          "type": "address"
        },
        {
          "internalType": "address",
          "name": "_spender",
          "type": "address"
        }
      ],
      "name": "allowance",
      "outputs": [
        {
          "internalType": "uint256",
          "name": "",
          "type": "uint256"
        }
      ],
      "stateMutability": "view",
      "type": "function"
    },
    {
      "inputs": [
        {
          "internalType": "address",
          "name": "_to",
          "type": "address"
        },
        {
          "internalType": "uint256",
          "name": "_amount",
          "type": "uint256"
        }
      ],
      "name": "transfer",
      "outputs": [
        {
          "internalType": "bool",
          "name": "",
          "type": "bool"
        }
      ],
      "stateMutability": "nonpayable",
      "type": "function"
    },
    {
      "inputs": [
        {
          "internalType": "address",
          "name": "_from",
          "type": "address"
        },
        {
          "internalType": "address",
          "name": "_to",
          "type": "address"
        },
        {
          "internalType": "uint256",
          "name": "_amount",
          "type": "uint256"
        }
      ],
      "name": "transferFrom",
      "outputs": [
        {
          "internalType": "bool",
          "name": "",
          "type": "bool"
        }
      ],
      "stateMutability": "nonpayable",
      "type": "function"
    },
    {
      "inputs": [
        {
          "internalType": "address",
          "name": "_spender",
          "type": "address"
        },
        {
          "internalType": "uint256",
          "name": "_amount",
          "type": "uint256"
        }
      ],
      "name": "approve",
      "outputs": [
        {
          "internalType": "bool",
          "name": "",
          "type": "bool"
        }
      ],
      "stateMutability": "nonpayable",
      "type": "function"
    },
    {
      "inputs": [
        {
          "internalType": "bytes4",
          "name": "_interfaceId",
          "type": "bytes4"
        }
      ],
      "name": "supportsInterface",
      "outputs": [
        {
          "internalType": "bool",
          "name": "",
          "type": "bool"
        }
      ],
      "stateMutability": "pure",
      "type": "function"
    }
  ],
  "bytecode": "0x60a06040523480156200001157600080fd5b50604051620019c0380380620019c08339818101604052810190620000379190620002c9565b8360029081620000489190620005ba565b5082600390816200005a9190620005ba565b508160ff1660808160ff168152505080600481905550806000803373ffffffffffffffffffffffffffffffffffffffff1673ffffffffffffffffffffffffffffffffffffffff1681526020019081526020016000208190555050505050620006a1565b6000604051905090565b600080fd5b600080fd5b600080fd5b600080fd5b6000601f19601f8301169050919050565b7f4e487b7100000000000000000000000000000000000000000000000000000000600052604160045260246000fd5b6200012682620000db565b810181811067ffffffffffffffff82111715620001485762000147620000ec565b5b80604052505050565b60006200015d620000bd565b90506200016b82826200011b565b919050565b600067ffffffffffffffff8211156200018e576200018d620000ec565b5b6200019982620000db565b9050602081019050919050565b60005b83811015620001c6578082015181840152602081019050620001a9565b60008484015250505050565b6000620001e9620001e38462000170565b62000151565b905082815260208101848484011115620002085762000207620000d6565b5b62000215848285620001a6565b509392505050565b600082601f830112620002355762000234620000d1565b5b815162000247848260208601620001d2565b91505092915050565b600060ff82169050919050565b620002688162000250565b81146200027457600080fd5b50565b60008151905062000288816200025d565b92915050565b6000819050919050565b620002a3816200028e565b8114620002af57600080fd5b50565b600081519050620002c38162000298565b92915050565b60008060008060808587031215620002e657620002e5620000c7565b5b600085015167ffffffffffffffff811115620003075762000306620000cc565b5b62000315878288016200021d565b945050602085015167ffffffffffffffff811115620003395762000338620000cc565b5b62000347878288016200021d565b93505060406200035a8782880162000277565b92505060606200036d87828801620002b2565b91505092959194509250565b600081519050919050565b7f4e487b7100000000000000000000000000000000000000000000000000000000600052602260045260246000fd5b60006002820490506001821680620003cc57607f821691505b602082108103620003e257620003e162000384565b5b50919050565b60008190508160005260206000209050919050565b60006020601f8301049050919050565b600082821b905092915050565b6000600883026200044c7fffffffffffffffffffffffffffffffffffffffffffffffffffffffffffffffff826200040d565b6200045886836200040d565b95508019841693508086168417925050509392505050565b6000819050919050565b60006200049b620004956200048f846200028e565b62000470565b6200028e565b9050919050565b6000819050919050565b620004b7836200047a565b620004cf620004c682620004a2565b8484546200041a565b825550505050565b600090565b620004e6620004d7565b620004f3818484620004ac565b505050565b5b818110156200051b576200050f600082620004dc565b600181019050620004f9565b5050565b601f8211156200056a576200053481620003e8565b6200053f84620003fd565b810160208510156200054f578190505b620005676200055e85620003fd565b830182620004f8565b50505b505050565b600082821c905092915050565b60006200058f600019846008026200056f565b1980831691505092915050565b6000620005aa83836200057c565b9150826002028217905092915050565b620005c58262000379565b67ffffffffffffffff811115620005e157620005e0620000ec565b5b620005ed8254620003b3565b620005fa8282856200051f565b600060209050601f8311600181146200063257600084156200061d578287015190505b6200062985826200059c565b86555062000699565b601f1984166200064286620003e8565b60005b828110156200066c5784890151825560018201915060208501945060208101905062000645565b868310156200068c578489015162000688601f8916826200057c565b8355505b6001600288020188555050505b505050505050565b608051611303620006bd600039600061087b01526113036000f3fe608060405234801561001057600080fd5b506004361061009e5760003560e01c8063313ce56711610066578063313ce5671461016f57806370a082311461018d57806395d89b41146101bd578063a9059cbb146101db578063dd62ed3e1461020b5761009e565b806301ffc9a7146100a357806306fdde03146100d3578063095ea7b3146100f157806318160ddd1461012157806323b872dd1461013f575b600080fd5b6100bd60048036038101906100b89190610cb0565b61023b565b6040516100ca9190610cf8565b60405180910390f35b6100db61030d565b6040516100e89190610da3565b60405180910390f35b61010b60048036038101906101069190610e59565b61039f565b6040516101189190610cf8565b60405180910390f35b610129610548565b6040516101369190610ea8565b60405180910390f35b61015960048036038101906101549190610ec3565b610552565b6040516101669190610cf8565b60405180910390f35b610177610877565b6040516101849190610f32565b60405180910390f35b6101a760048036038101906101a29190610f4d565b61089f565b6040516101b49190610ea8565b60405180910390f35b6101c56108e7565b6040516101d29190610da3565b60405180910390f35b6101f560048036038101906101f09190610e59565b610979565b6040516102029190610cf8565b60405180910390f35b61022560048036038101906102209190610f7a565b610bcc565b6040516102329190610ea8565b60405180910390f35b60007f36372b07000000000000000000000000000000000000000000000000000000007bffffffffffffffffffffffffffffffffffffffffffffffffffffffff1916827bffffffffffffffffffffffffffffffffffffffffffffffffffffffff1916148061030657507fa219a025000000000000000000000000000000000000000000000000000000007bffffffffffffffffffffffffffffffffffffffffffffffffffffffff1916827bffffffffffffffffffffffffffffffffffffffffffffffffffffffff1916145b9050919050565b60606002805461031c90610fe9565b80601f016020809104026020016040519081016040528092919081815260200182805461034890610fe9565b80156103955780601f1061036a57610100808354040283529160200191610395565b820191906000526020600020905b81548152906001019060200180831161037857829003601f168201915b5050505050905090565b60008073ffffffffffffffffffffffffffffffffffffffff168373ffffffffffffffffffffffffffffffffffffffff160361040f576040517f08c379a000000000000000000000000000000000000000000000000000000000815260040161040690611066565b60405180910390fd5b60008211610452576040517f08c379a0000000000000000000000000000000000000000000000000000000008152600401610449906110d2565b60405180910390fd5b600033905082600160008373ffffffffffffffffffffffffffffffffffffffff1673ffffffffffffffffffffffffffffffffffffffff16815260200190815260200160002060008673ffffffffffffffffffffffffffffffffffffffff1673ffffffffffffffffffffffffffffffffffffffff168152602001908152602001600020819055508373ffffffffffffffffffffffffffffffffffffffff168173ffffffffffffffffffffffffffffffffffffffff167f8c5be1e5ebec7d5bd14f71427d1e84f3dd0314c0f7b2291e5b200ac8c7c3b925856040516105359190610ea8565b60405180910390a3600191505092915050565b6000600454905090565b60008033905082600160008773ffffffffffffffffffffffffffffffffffffffff1673ffffffffffffffffffffffffffffffffffffffff16815260200190815260200160002060008373ffffffffffffffffffffffffffffffffffffffff1673ffffffffffffffffffffffffffffffffffffffff168152602001908152602001600020541015610617576040517f08c379a000000000000000000000000000000000000000000000000000000000815260040161060e9061113e565b60405180910390fd5b600073ffffffffffffffffffffffffffffffffffffffff168473ffffffffffffffffffffffffffffffffffffffff1603610686576040517f08c379a000000000000000000000000000000000000000000000000000000000815260040161067d906111aa565b60405180910390fd5b600083116106c9576040517f08c379a00000000000000000000000000000000000000000000000000000000081526004016106c0906110d2565b60405180910390fd5b82600160008773ffffffffffffffffffffffffffffffffffffffff1673ffffffffffffffffffffffffffffffffffffffff16815260200190815260200160002060008373ffffffffffffffffffffffffffffffffffffffff1673ffffffffffffffffffffffffffffffffffffffff168152602001908152602001600020600082825461075591906111f9565b92505081905550826000808773ffffffffffffffffffffffffffffffffffffffff1673ffffffffffffffffffffffffffffffffffffffff16815260200190815260200160002060008282546107aa91906111f9565b92505081905550826000808673ffffffffffffffffffffffffffffffffffffffff1673ffffffffffffffffffffffffffffffffffffffff16815260200190815260200160002060008282546107ff919061122d565b925050819055508373ffffffffffffffffffffffffffffffffffffffff168573ffffffffffffffffffffffffffffffffffffffff167fddf252ad1be2c89b69c2b068fc378daa952ba7f163c4a11628f55a4df523b3ef856040516108639190610ea8565b60405180910390a360019150509392505050565b60007f0000000000000000000000000000000000000000000000000000000000000000905090565b60008060008373ffffffffffffffffffffffffffffffffffffffff1673ffffffffffffffffffffffffffffffffffffffff168152602001908152602001600020549050919050565b6060600380546108f690610fe9565b80601f016020809104026020016040519081016040528092919081815260200182805461092290610fe9565b801561096f5780601f106109445761010080835404028352916020019161096f565b820191906000526020600020905b81548152906001019060200180831161095257829003601f168201915b5050505050905090565b600080339050826000808373ffffffffffffffffffffffffffffffffffffffff1673ffffffffffffffffffffffffffffffffffffffff168152602001908152602001600020541015610a00576040517f08c379a00000000000000000000000000000000000000000000000000000000081526004016109f7906112ad565b60405180910390fd5b600073ffffffffffffffffffffffffffffffffffffffff168473ffffffffffffffffffffffffffffffffffffffff1603610a6f576040517f08c379a0000000000000000000000000000000000000000000000000000000008152600401610a66906111aa565b60405180910390fd5b60008311610ab2576040517f08c379a0000000000000000000000000000000000000000000000000000000008152600401610aa9906110d2565b60405180910390fd5b826000808373ffffffffffffffffffffffffffffffffffffffff1673ffffffffffffffffffffffffffffffffffffffff1681526020019081526020016000206000828254610b0091906111f9565b92505081905550826000808673ffffffffffffffffffffffffffffffffffffffff1673ffffffffffffffffffffffffffffffffffffffff1681526020019081526020016000206000828254610b55919061122d565b925050819055508373ffffffffffffffffffffffffffffffffffffffff168173ffffffffffffffffffffffffffffffffffffffff167fddf252ad1be2c89b69c2b068fc378daa952ba7f163c4a11628f55a4df523b3ef85604051610bb99190610ea8565b60405180910390a3600191505092915050565b6000600160008473ffffffffffffffffffffffffffffffffffffffff1673ffffffffffffffffffffffffffffffffffffffff16815260200190815260200160002060008373ffffffffffffffffffffffffffffffffffffffff1673ffffffffffffffffffffffffffffffffffffffff16815260200190815260200160002054905092915050565b600080fd5b60007fffffffff0000000000000000000000000000000000000000000000000000000082169050919050565b610c8d81610c58565b8114610c9857600080fd5b50565b600081359050610caa81610c84565b92915050565b600060208284031215610cc657610cc5610c53565b5b6000610cd484828501610c9b565b91505092915050565b60008115159050919050565b610cf281610cdd565b82525050565b6000602082019050610d0d6000830184610ce9565b92915050565b600081519050919050565b600082825260208201905092915050565b60005b83811015610d4d578082015181840152602081019050610d32565b60008484015250505050565b6000601f19601f8301169050919050565b6000610d7582610d13565b610d7f8185610d1e565b9350610d8f818560208601610d2f565b610d9881610d59565b840191505092915050565b60006020820190508181036000830152610dbd8184610d6a565b905092915050565b600073ffffffffffffffffffffffffffffffffffffffff82169050919050565b6000610df082610dc5565b9050919050565b610e0081610de5565b8114610e0b57600080fd5b50565b600081359050610e1d81610df7565b92915050565b6000819050919050565b610e3681610e23565b8114610e4157600080fd5b50565b600081359050610e5381610e2d565b92915050565b60008060408385031215610e7057610e6f610c53565b5b6000610e7e85828601610e0e565b9250506020610e8f85828601610e44565b9150509250929050565b610ea281610e23565b82525050565b6000602082019050610ebd6000830184610e99565b92915050565b600080600060608486031215610edc57610edb610c53565b5b6000610eea86828701610e0e565b9350506020610efb86828701610e0e565b9250506040610f0c86828701610e44565b9150509250925092565b600060ff82169050919050565b610f2c81610f16565b82525050565b6000602082019050610f476000830184610f23565b92915050565b600060208284031215610f6357610f62610c53565b5b6000610f7184828501610e0e565b91505092915050565b60008060408385031215610f9157610f90610c53565b5b6000610f9f85828601610e0e565b9250506020610fb085828601610e0e565b9150509250929050565b7f4e487b7100000000000000000000000000000000000000000000000000000000600052602260045260246000fd5b6000600282049050600182168061100157607f821691505b60208210810361101457611013610fba565b5b50919050565b7f496e76616c6964207370656e6465722061646472657373000000000000000000600082015250565b6000611050601783610d1e565b915061105b8261101a565b602082019050919050565b6000602082019050818103600083015261107f81611043565b9050919050565b7f746f6b656e203d3d203000000000000000000000000000000000000000000000600082015250565b60006110bc600a83610d1e565b91506110c782611086565b602082019050919050565b600060208201905081810360008301526110eb816110af565b9050919050565b7f496e73756666696369656e7420617070726f76616c20616d6f756e7400000000600082015250565b6000611128601c83610d1e565b9150611133826110f2565b602082019050919050565b600060208201905081810360008301526111578161111b565b9050919050565b7f496e76616c696420746172676574206164647265737300000000000000000000600082015250565b6000611194601683610d1e565b915061119f8261115e565b602082019050919050565b600060208201905081810360008301526111c381611187565b9050919050565b7f4e487b7100000000000000000000000000000000000000000000000000000000600052601160045260246000fd5b600061120482610e23565b915061120f83610e23565b9250828203905081811115611227576112266111ca565b5b92915050565b600061123882610e23565b915061124383610e23565b925082820190508082111561125b5761125a6111ca565b5b92915050565b7f496e73756666696369656e742062616c616e6365000000000000000000000000600082015250565b6000611297601483610d1e565b91506112a282611261565b602082019050919050565b600060208201905081810360008301526112c68161128a565b905091905056fea2646970667358221220162a19721e6b8481a79dce8af01356afc040d438945f5e70dd26b5f7027b756564736f6c63430008110033",
  "immutableReferences": {
    "371": [
      {
        "length": 32,
        "start": 2171
      }
    ]
  },
  "source": "// SPDX-License-Identifier: GPL-3.0\r\npragma solidity ^0.8.0;\r\n\r\ninterface IERC20 {\r\n    event Transfer(address indexed from, address indexed to, uint value);\r\n    event Approval(address indexed owner, address indexed spender, uint value);\r\n\r\n    function totalSupply() external view returns(uint);\r\n    function balanceOf(address _account) external view returns(uint);\r\n    function transfer(address _to, uint _amount) external returns(bool);\r\n    function allowance(address _owner, address _spender) external view returns(uint);\r\n    function approve(address _spender, uint _amount) external returns(bool);\r\n    function transferFrom(\r\n        address _from,\r\n        address _to,\r\n        uint256 _amount\r\n    ) external returns(bool);\r\n}\r\n\r\ninterface IERC20Metadata is IERC20 {\r\n    function name() external view returns(string memory);\r\n    function symbol() external view returns(string memory);\r\n    function decimals() external view returns(uint8);\r\n}\r\n\r\ninterface IERC165 {\r\n    function supportsInterface(bytes4 interfaceId) external view returns(bool);\r\n}\r\n\r\ncontract ERC20 is IERC20Metadata, IERC165 {\r\n    // from user to his/her balance\r\n    mapping(address => uint) internal balances;\r\n    // from user to approved operator\r\n    mapping(address => mapping(address => uint)) private allowances;\r\n\r\n    string private _name;\r\n    string private _symbol;\r\n    uint8 private immutable _decimals;\r\n\r\n    uint private _totalSupply;\r\n\r\n    constructor(\r\n        string memory _tokenName,\r\n        string memory _tokenSymbol,\r\n        uint8 _tokenDecimals,\r\n        uint _tokenTotalSupply /// note must be in decimal format\r\n    ) {\r\n        _name = _tokenName;\r\n        _symbol = _tokenSymbol;\r\n        _decimals = _tokenDecimals;\r\n        _totalSupply = _tokenTotalSupply;\r\n\r\n        balances[msg.sender] = _tokenTotalSupply;\r\n    }\r\n\r\n    function name() external view returns(string memory) {\r\n        return _name;\r\n    }\r\n\r\n    function symbol() external view returns(string memory) {\r\n        return _symbol;\r\n    }\r\n\r\n    function totalSupply() external view returns(uint) {\r\n        return _totalSupply;\r\n    }\r\n\r\n    function decimals() external view returns(uint8) {\r\n        return _decimals;\r\n    }\r\n\r\n    function balanceOf(address _account) external view returns(uint) {\r\n        return balances[_account];\r\n    }\r\n\r\n    function allowance(address _owner, address _spender) external view returns(uint) {\r\n        return allowances[_owner][_spender];\r\n    }\r\n\r\n    function transfer(address _to, uint _amount) external returns(bool) {\r\n        address msgSender = msg.sender;\r\n        require(balances[msgSender] >= _amount, \"Insufficient balance\");\r\n        require(_to != address(0), \"Invalid target address\");\r\n        require(_amount > 0, \"token == 0\");\r\n\r\n        balances[msgSender] -= _amount;\r\n        balances[_to] += _amount;\r\n\r\n        emit Transfer({\r\n            from: msgSender,\r\n            to: _to,\r\n            value: _amount\r\n        });\r\n\r\n        return true;\r\n    }\r\n\r\n    function transferFrom(\r\n        address _from,\r\n        address _to,\r\n        uint256 _amount /// note must be in decimal format\r\n    ) external returns (bool) {\r\n        address msgSender = msg.sender;\r\n        require(allowances[_from][msgSender] >= _amount, \"Insufficient approval amount\");\r\n        require(_to != address(0), \"Invalid target address\");\r\n        require(_amount > 0, \"token == 0\");\r\n\r\n        allowances[_from][msgSender] -= _amount;\r\n\r\n        balances[_from] -= _amount;\r\n        balances[_to] += _amount;\r\n\r\n        emit Transfer({\r\n            from: _from,\r\n            to: _to,\r\n            value: _amount\r\n        });\r\n\r\n        return true;\r\n    }\r\n\r\n    function approve(address _spender, uint _amount) external returns(bool) {\r\n        require(_spender != address(0), \"Invalid spender address\");\r\n        require(_amount > 0, \"token == 0\");\r\n        address msgSender = msg.sender;\r\n\r\n        allowances[msgSender][_spender] = _amount;\r\n\r\n        emit Approval({\r\n            owner: msgSender,\r\n            spender: _spender,\r\n            value: _amount\r\n        });\r\n\r\n        return true;\r\n    }\r\n\r\n    function _mint(address _to, uint _amount) internal {\r\n        require(_to != address(0), \"Invalid address\");\r\n        require(_amount > 0, \"Invalid token amount\");\r\n\r\n        _totalSupply += _amount;\r\n\r\n        balances[_to] += _amount;\r\n\r\n        emit Transfer({\r\n            from: address(0),\r\n            to: _to,\r\n            value: _amount\r\n        });\r\n    }\r\n\r\n    function _burn(address _from, uint _amount) internal {\r\n        require(_amount > 0, \"Invalid token amount\");\r\n\r\n        _totalSupply -= _amount;\r\n\r\n        balances[_from] -= _amount;\r\n\r\n        emit Transfer({\r\n            from: _from,\r\n            to: address(0),\r\n            value: _amount\r\n        });\r\n    } \r\n\r\n    function supportsInterface(bytes4 _interfaceId) external pure returns(bool) {\r\n        return _interfaceId == type(IERC20).interfaceId || _interfaceId == type(IERC20Metadata).interfaceId;\r\n    }\r\n}\r\n\r\ncontract WETH is ERC20(\"Wrapped Ether\", \"WETH\", 18, 0) {\r\n    address public immutable owner = msg.sender;\r\n\r\n    mapping(address => bool) private oracleOperators;\r\n\r\n    event EtherUnlockingRequest(\r\n        address unlocker,\r\n        uint256 amount,\r\n        uint256 time\r\n    );\r\n\r\n    constructor(address[] memory _oracleOperators) {\r\n        for (uint256 i; i < _oracleOperators.length; ++i) {\r\n            require(\r\n                oracleOperators[_oracleOperators[i]] == false,\r\n                \"Duplicate operator\"\r\n            );\r\n\r\n            oracleOperators[_oracleOperators[i]] = true;\r\n        }\r\n    }\r\n\r\n    modifier onlyOwner() {\r\n        require(msg.sender == owner, \"Only owner\");\r\n        _;\r\n    }\r\n\r\n    modifier onlyOperators() {\r\n        require(oracleOperators[msg.sender] == true, \"Only operators\");\r\n        _;\r\n    }\r\n\r\n    function mint(\r\n        uint256 _wether,\r\n        address _to\r\n    ) external onlyOperators {\r\n        _mint(_to, _wether);\r\n    }\r\n\r\n    function unlockEther(uint256 _amount) external {\r\n        require(balances[msg.sender] >= _amount, \"Not enough balance\");\r\n\r\n        _burn(msg.sender, _amount);\r\n\r\n        emit EtherUnlockingRequest({\r\n            unlocker: msg.sender,\r\n            amount: _amount,\r\n            time: block.timestamp\r\n        });\r\n    }\r\n\r\n    function addOperator(address _newOperator) external onlyOwner {\r\n        oracleOperators[_newOperator] = true;\r\n    }\r\n}",
  "sourcePath": "C:\\Users\\PooriaGg\\Desktop\\Oracle_2\\contracts\\WrappedMatic.sol",
  "compiler": {
    "name": "solc",
    "version": "0.8.17+commit.8df45f5f.Emscripten.clang"
  },
  "schemaVersion": "3.4.11",
  "updatedAt": "2023-03-21T15:41:41.983Z",
  "devdoc": {
    "kind": "dev",
    "methods": {},
    "version": 1
  },
  "userdoc": {
    "kind": "user",
    "methods": {},
    "version": 1
  }
}