{
  "contractName": "Oracle",
  "abi": [
    {
      "inputs": [
        {
          "internalType": "address[]",
          "name": "_oracleOperators",
          "type": "address[]"
        }
      ],
      "stateMutability": "nonpayable",
      "type": "constructor"
    },
    {
      "anonymous": false,
      "inputs": [
        {
          "indexed": false,
          "internalType": "address",
          "name": "to",
          "type": "address"
        },
        {
          "indexed": false,
          "internalType": "uint256",
          "name": "amount",
          "type": "uint256"
        },
        {
          "indexed": false,
          "internalType": "uint256",
          "name": "time",
          "type": "uint256"
        }
      ],
      "name": "EtherIncreased",
      "type": "event"
    },
    {
      "anonymous": false,
      "inputs": [
        {
          "indexed": false,
          "internalType": "address",
          "name": "locker",
          "type": "address"
        },
        {
          "indexed": false,
          "internalType": "uint256",
          "name": "amount",
          "type": "uint256"
        },
        {
          "indexed": false,
          "internalType": "uint256",
          "name": "time",
          "type": "uint256"
        }
      ],
      "name": "EtherLockingRequest",
      "type": "event"
    },
    {
      "anonymous": false,
      "inputs": [
        {
          "indexed": false,
          "internalType": "address",
          "name": "withdrawer",
          "type": "address"
        },
        {
          "indexed": false,
          "internalType": "uint256",
          "name": "amount",
          "type": "uint256"
        },
        {
          "indexed": false,
          "internalType": "uint256",
          "name": "time",
          "type": "uint256"
        }
      ],
      "name": "EtherWithdraw",
      "type": "event"
    },
    {
      "inputs": [
        {
          "internalType": "address",
          "name": "",
          "type": "address"
        }
      ],
      "name": "etherToUnlock",
      "outputs": [
        {
          "internalType": "uint256",
          "name": "",
          "type": "uint256"
        }
      ],
      "stateMutability": "view",
      "type": "function"
    },
    {
      "inputs": [],
      "name": "owner",
      "outputs": [
        {
          "internalType": "address",
          "name": "",
          "type": "address"
        }
      ],
      "stateMutability": "view",
      "type": "function"
    },
    {
      "inputs": [],
      "name": "lockEther",
      "outputs": [],
      "stateMutability": "payable",
      "type": "function"
    },
    {
      "inputs": [
        {
          "internalType": "address",
          "name": "_to",
          "type": "address"
        },
        {
          "internalType": "uint256",
          "name": "_amount",
          "type": "uint256"
        }
      ],
      "name": "increaseEtherToUnlock",
      "outputs": [],
      "stateMutability": "nonpayable",
      "type": "function"
    },
    {
      "inputs": [
        {
          "internalType": "uint256",
          "name": "_amount",
          "type": "uint256"
        }
      ],
      "name": "unlockEther",
      "outputs": [],
      "stateMutability": "payable",
      "type": "function"
    },
    {
      "inputs": [
        {
          "internalType": "address",
          "name": "_newOperator",
          "type": "address"
        }
      ],
      "name": "addOperator",
      "outputs": [],
      "stateMutability": "nonpayable",
      "type": "function"
    }
  ],
  "bytecode": "0x60a06040523373ffffffffffffffffffffffffffffffffffffffff1660809073ffffffffffffffffffffffffffffffffffffffff168152503480156200004457600080fd5b50604051620010003803806200100083398181016040528101906200006a9190620003a7565b60005b8151811015620001b15760001515600080848481518110620000945762000093620003f8565b5b602002602001015173ffffffffffffffffffffffffffffffffffffffff1673ffffffffffffffffffffffffffffffffffffffff16815260200190815260200160002060009054906101000a900460ff1615151462000129576040517f08c379a0000000000000000000000000000000000000000000000000000000008152600401620001209062000488565b60405180910390fd5b6001600080848481518110620001445762000143620003f8565b5b602002602001015173ffffffffffffffffffffffffffffffffffffffff1673ffffffffffffffffffffffffffffffffffffffff16815260200190815260200160002060006101000a81548160ff02191690831515021790555080620001a990620004e3565b90506200006d565b505062000530565b6000604051905090565b600080fd5b600080fd5b600080fd5b6000601f19601f8301169050919050565b7f4e487b7100000000000000000000000000000000000000000000000000000000600052604160045260246000fd5b6200021d82620001d2565b810181811067ffffffffffffffff821117156200023f576200023e620001e3565b5b80604052505050565b600062000254620001b9565b905062000262828262000212565b919050565b600067ffffffffffffffff821115620002855762000284620001e3565b5b602082029050602081019050919050565b600080fd5b600073ffffffffffffffffffffffffffffffffffffffff82169050919050565b6000620002c8826200029b565b9050919050565b620002da81620002bb565b8114620002e657600080fd5b50565b600081519050620002fa81620002cf565b92915050565b600062000317620003118462000267565b62000248565b905080838252602082019050602084028301858111156200033d576200033c62000296565b5b835b818110156200036a5780620003558882620002e9565b8452602084019350506020810190506200033f565b5050509392505050565b600082601f8301126200038c576200038b620001cd565b5b81516200039e84826020860162000300565b91505092915050565b600060208284031215620003c057620003bf620001c3565b5b600082015167ffffffffffffffff811115620003e157620003e0620001c8565b5b620003ef8482850162000374565b91505092915050565b7f4e487b7100000000000000000000000000000000000000000000000000000000600052603260045260246000fd5b600082825260208201905092915050565b7f4475706c6963617465206f70657261746f720000000000000000000000000000600082015250565b60006200047060128362000427565b91506200047d8262000438565b602082019050919050565b60006020820190508181036000830152620004a38162000461565b9050919050565b7f4e487b7100000000000000000000000000000000000000000000000000000000600052601160045260246000fd5b6000819050919050565b6000620004f082620004d9565b91507fffffffffffffffffffffffffffffffffffffffffffffffffffffffffffffffff8203620005255762000524620004aa565b5b600182019050919050565b608051610aad62000553600039600081816104d301526104f70152610aad6000f3fe6080604052600436106100555760003560e01c80630ab940861461005a5780635b648ebd1461007657806366f9a5081461009f5780638da5cb5b146100a95780639870d7fe146100d4578063e32ec121146100fd575b600080fd5b610074600480360381019061006f9190610630565b61013a565b005b34801561008257600080fd5b5061009d600480360381019061009891906106bb565b610323565b005b6100a761044a565b005b3480156100b557600080fd5b506100be6104d1565b6040516100cb919061070a565b60405180910390f35b3480156100e057600080fd5b506100fb60048036038101906100f69190610725565b6104f5565b005b34801561010957600080fd5b50610124600480360381019061011f9190610725565b6105dd565b6040516101319190610761565b60405180910390f35b60001515600260009054906101000a900460ff16151514610190576040517f08c379a0000000000000000000000000000000000000000000000000000000008152600401610187906107d9565b60405180910390fd5b6001600260006101000a81548160ff02191690831515021790555080600160003373ffffffffffffffffffffffffffffffffffffffff1673ffffffffffffffffffffffffffffffffffffffff16815260200190815260200160002054101561022d576040517f08c379a000000000000000000000000000000000000000000000000000000000815260040161022490610845565b60405180910390fd5b80600160003373ffffffffffffffffffffffffffffffffffffffff1673ffffffffffffffffffffffffffffffffffffffff168152602001908152602001600020600082825461027c9190610894565b925050819055503373ffffffffffffffffffffffffffffffffffffffff166108fc829081150290604051600060405180830381858888f193505050501580156102c9573d6000803e3d6000fd5b507f25af03d32f29c3cd86d8f8ea5dc809dc033de478ff0f1bcbadc81f674e02bfb43382426040516102fd939291906108c8565b60405180910390a16000600260006101000a81548160ff02191690831515021790555050565b600115156000803373ffffffffffffffffffffffffffffffffffffffff1673ffffffffffffffffffffffffffffffffffffffff16815260200190815260200160002060009054906101000a900460ff161515146103b5576040517f08c379a00000000000000000000000000000000000000000000000000000000081526004016103ac9061094b565b60405180910390fd5b80600160008473ffffffffffffffffffffffffffffffffffffffff1673ffffffffffffffffffffffffffffffffffffffff1681526020019081526020016000206000828254610404919061096b565b925050819055507f74d0dc48a3bab6d22dfa8e059585cc8dfcdd3d2f4c82e0d88263827716c0d8ee82824260405161043e939291906108c8565b60405180910390a15050565b662386f26fc10000341015610494576040517f08c379a000000000000000000000000000000000000000000000000000000000815260040161048b906109eb565b60405180910390fd5b7f3e25f0a3fa42a546a6a64132a6a9626aaea11b87ebd56e8ec8762c11171085c83334426040516104c7939291906108c8565b60405180910390a1565b7f000000000000000000000000000000000000000000000000000000000000000081565b7f000000000000000000000000000000000000000000000000000000000000000073ffffffffffffffffffffffffffffffffffffffff163373ffffffffffffffffffffffffffffffffffffffff1614610583576040517f08c379a000000000000000000000000000000000000000000000000000000000815260040161057a90610a57565b60405180910390fd5b60016000808373ffffffffffffffffffffffffffffffffffffffff1673ffffffffffffffffffffffffffffffffffffffff16815260200190815260200160002060006101000a81548160ff02191690831515021790555050565b60016020528060005260406000206000915090505481565b600080fd5b6000819050919050565b61060d816105fa565b811461061857600080fd5b50565b60008135905061062a81610604565b92915050565b600060208284031215610646576106456105f5565b5b60006106548482850161061b565b91505092915050565b600073ffffffffffffffffffffffffffffffffffffffff82169050919050565b60006106888261065d565b9050919050565b6106988161067d565b81146106a357600080fd5b50565b6000813590506106b58161068f565b92915050565b600080604083850312156106d2576106d16105f5565b5b60006106e0858286016106a6565b92505060206106f18582860161061b565b9150509250929050565b6107048161067d565b82525050565b600060208201905061071f60008301846106fb565b92915050565b60006020828403121561073b5761073a6105f5565b5b6000610749848285016106a6565b91505092915050565b61075b816105fa565b82525050565b60006020820190506107766000830184610752565b92915050565b600082825260208201905092915050565b7f4c6f636b65640000000000000000000000000000000000000000000000000000600082015250565b60006107c360068361077c565b91506107ce8261078d565b602082019050919050565b600060208201905081810360008301526107f2816107b6565b9050919050565b7f4e6f7420656e6f7567682066756e640000000000000000000000000000000000600082015250565b600061082f600f8361077c565b915061083a826107f9565b602082019050919050565b6000602082019050818103600083015261085e81610822565b9050919050565b7f4e487b7100000000000000000000000000000000000000000000000000000000600052601160045260246000fd5b600061089f826105fa565b91506108aa836105fa565b92508282039050818111156108c2576108c1610865565b5b92915050565b60006060820190506108dd60008301866106fb565b6108ea6020830185610752565b6108f76040830184610752565b949350505050565b7f4f6e6c79206f70657261746f7273000000000000000000000000000000000000600082015250565b6000610935600e8361077c565b9150610940826108ff565b602082019050919050565b6000602082019050818103600083015261096481610928565b9050919050565b6000610976826105fa565b9150610981836105fa565b925082820190508082111561099957610998610865565b5b92915050565b7f696e73756666696369656e742066756e64000000000000000000000000000000600082015250565b60006109d560118361077c565b91506109e08261099f565b602082019050919050565b60006020820190508181036000830152610a04816109c8565b9050919050565b7f4f6e6c79206f776e657200000000000000000000000000000000000000000000600082015250565b6000610a41600a8361077c565b9150610a4c82610a0b565b602082019050919050565b60006020820190508181036000830152610a7081610a34565b905091905056fea264697066735822122067a62f30fc089e7a9e7a7b37a7e25675d5f58b02913ad072b3f60b550f31ecc464736f6c63430008110033",
  "immutableReferences": {
    "38": [
      {
        "length": 32,
        "start": 1235
      },
      {
        "length": 32,
        "start": 1271
      }
    ]
  },
  "source": "// SPDX-License-Identifier: GPL-3.0\r\npragma solidity ^0.8.17;\r\n\r\ncontract Oracle {\r\n    address public immutable owner = msg.sender;\r\n\r\n    mapping(address => bool) private oracleOperators;\r\n    mapping(address => uint256) public etherToUnlock;\r\n\r\n    event EtherLockingRequest(\r\n        address locker,\r\n        uint256 amount,\r\n        uint256 time\r\n    );\r\n\r\n    event EtherWithdraw(\r\n        address withdrawer,\r\n        uint256 amount,\r\n        uint256 time\r\n    );\r\n\r\n    event EtherIncreased(\r\n        address to,\r\n        uint256 amount,\r\n        uint256 time\r\n    );\r\n\r\n    constructor(address[] memory _oracleOperators) {\r\n        for (uint256 i; i < _oracleOperators.length; ++i) {\r\n            require(\r\n                oracleOperators[_oracleOperators[i]] == false,\r\n                \"Duplicate operator\"\r\n            );\r\n\r\n            oracleOperators[_oracleOperators[i]] = true;\r\n        }\r\n    }\r\n\r\n    modifier onlyOwner() {\r\n        require(msg.sender == owner, \"Only owner\");\r\n        _;\r\n    }\r\n\r\n    modifier onlyOperators() {\r\n        require(oracleOperators[msg.sender] == true, \"Only operators\");\r\n        _;\r\n    }\r\n\r\n    bool locked;\r\n    modifier reentrantGaurd() {\r\n        require(locked == false, \"Locked\");\r\n        locked = true;\r\n        _;\r\n        locked = false;\r\n    }\r\n\r\n    function lockEther() external payable {\r\n        require(msg.value >= 0.01 ether, \"insufficient fund\");\r\n\r\n        emit EtherLockingRequest({\r\n            locker: msg.sender,\r\n            amount: msg.value,\r\n            time: block.timestamp\r\n        });\r\n    }\r\n\r\n    function increaseEtherToUnlock(\r\n        address _to,\r\n        uint256 _amount \r\n    ) external onlyOperators {\r\n        etherToUnlock[_to] += _amount;\r\n\r\n        emit EtherIncreased({\r\n            to: _to,\r\n            amount: _amount,\r\n            time: block.timestamp\r\n        });\r\n    }\r\n\r\n    function unlockEther(uint256 _amount) external payable reentrantGaurd {\r\n        require(etherToUnlock[msg.sender] >= _amount, \"Not enough fund\");\r\n\r\n        etherToUnlock[msg.sender] -= _amount;\r\n\r\n        payable(msg.sender).transfer(_amount);\r\n\r\n        emit EtherWithdraw({\r\n            withdrawer: msg.sender,\r\n            amount: _amount,\r\n            time: block.timestamp\r\n        });\r\n    }\r\n\r\n    function addOperator(address _newOperator) external onlyOwner {\r\n        oracleOperators[_newOperator] = true;\r\n    }\r\n}",
  "sourcePath": "C:\\Users\\PooriaGg\\Desktop\\Oracle_2\\contracts\\Oracle.sol",
  "compiler": {
    "name": "solc",
    "version": "0.8.17+commit.8df45f5f.Emscripten.clang"
  },
  "schemaVersion": "3.4.11",
  "updatedAt": "2023-03-21T15:41:41.980Z",
  "devdoc": {
    "kind": "dev",
    "methods": {},
    "version": 1
  },
  "userdoc": {
    "kind": "user",
    "methods": {},
    "version": 1
  }
}