{
  "contractName": "WETH",
  "abi": [
    {
      "inputs": [
        {
          "internalType": "address[]",
          "name": "_oracleOperators",
          "type": "address[]"
        }
      ],
      "stateMutability": "nonpayable",
      "type": "constructor"
    },
    {
      "anonymous": false,
      "inputs": [
        {
          "indexed": true,
          "internalType": "address",
          "name": "owner",
          "type": "address"
        },
        {
          "indexed": true,
          "internalType": "address",
          "name": "spender",
          "type": "address"
        },
        {
          "indexed": false,
          "internalType": "uint256",
          "name": "value",
          "type": "uint256"
        }
      ],
      "name": "Approval",
      "type": "event"
    },
    {
      "anonymous": false,
      "inputs": [
        {
          "indexed": false,
          "internalType": "address",
          "name": "unlocker",
          "type": "address"
        },
        {
          "indexed": false,
          "internalType": "uint256",
          "name": "amount",
          "type": "uint256"
        },
        {
          "indexed": false,
          "internalType": "uint256",
          "name": "time",
          "type": "uint256"
        }
      ],
      "name": "EtherUnlockingRequest",
      "type": "event"
    },
    {
      "anonymous": false,
      "inputs": [
        {
          "indexed": true,
          "internalType": "address",
          "name": "from",
          "type": "address"
        },
        {
          "indexed": true,
          "internalType": "address",
          "name": "to",
          "type": "address"
        },
        {
          "indexed": false,
          "internalType": "uint256",
          "name": "value",
          "type": "uint256"
        }
      ],
      "name": "Transfer",
      "type": "event"
    },
    {
      "inputs": [
        {
          "internalType": "address",
          "name": "_owner",
          "type": "address"
        },
        {
          "internalType": "address",
          "name": "_spender",
          "type": "address"
        }
      ],
      "name": "allowance",
      "outputs": [
        {
          "internalType": "uint256",
          "name": "",
          "type": "uint256"
        }
      ],
      "stateMutability": "view",
      "type": "function"
    },
    {
      "inputs": [
        {
          "internalType": "address",
          "name": "_spender",
          "type": "address"
        },
        {
          "internalType": "uint256",
          "name": "_amount",
          "type": "uint256"
        }
      ],
      "name": "approve",
      "outputs": [
        {
          "internalType": "bool",
          "name": "",
          "type": "bool"
        }
      ],
      "stateMutability": "nonpayable",
      "type": "function"
    },
    {
      "inputs": [
        {
          "internalType": "address",
          "name": "_account",
          "type": "address"
        }
      ],
      "name": "balanceOf",
      "outputs": [
        {
          "internalType": "uint256",
          "name": "",
          "type": "uint256"
        }
      ],
      "stateMutability": "view",
      "type": "function"
    },
    {
      "inputs": [],
      "name": "decimals",
      "outputs": [
        {
          "internalType": "uint8",
          "name": "",
          "type": "uint8"
        }
      ],
      "stateMutability": "view",
      "type": "function"
    },
    {
      "inputs": [],
      "name": "name",
      "outputs": [
        {
          "internalType": "string",
          "name": "",
          "type": "string"
        }
      ],
      "stateMutability": "view",
      "type": "function"
    },
    {
      "inputs": [],
      "name": "owner",
      "outputs": [
        {
          "internalType": "address",
          "name": "",
          "type": "address"
        }
      ],
      "stateMutability": "view",
      "type": "function"
    },
    {
      "inputs": [
        {
          "internalType": "bytes4",
          "name": "_interfaceId",
          "type": "bytes4"
        }
      ],
      "name": "supportsInterface",
      "outputs": [
        {
          "internalType": "bool",
          "name": "",
          "type": "bool"
        }
      ],
      "stateMutability": "pure",
      "type": "function"
    },
    {
      "inputs": [],
      "name": "symbol",
      "outputs": [
        {
          "internalType": "string",
          "name": "",
          "type": "string"
        }
      ],
      "stateMutability": "view",
      "type": "function"
    },
    {
      "inputs": [],
      "name": "totalSupply",
      "outputs": [
        {
          "internalType": "uint256",
          "name": "",
          "type": "uint256"
        }
      ],
      "stateMutability": "view",
      "type": "function"
    },
    {
      "inputs": [
        {
          "internalType": "address",
          "name": "_to",
          "type": "address"
        },
        {
          "internalType": "uint256",
          "name": "_amount",
          "type": "uint256"
        }
      ],
      "name": "transfer",
      "outputs": [
        {
          "internalType": "bool",
          "name": "",
          "type": "bool"
        }
      ],
      "stateMutability": "nonpayable",
      "type": "function"
    },
    {
      "inputs": [
        {
          "internalType": "address",
          "name": "_from",
          "type": "address"
        },
        {
          "internalType": "address",
          "name": "_to",
          "type": "address"
        },
        {
          "internalType": "uint256",
          "name": "_amount",
          "type": "uint256"
        }
      ],
      "name": "transferFrom",
      "outputs": [
        {
          "internalType": "bool",
          "name": "",
          "type": "bool"
        }
      ],
      "stateMutability": "nonpayable",
      "type": "function"
    },
    {
      "inputs": [
        {
          "internalType": "uint256",
          "name": "_wether",
          "type": "uint256"
        },
        {
          "internalType": "address",
          "name": "_to",
          "type": "address"
        }
      ],
      "name": "mint",
      "outputs": [],
      "stateMutability": "nonpayable",
      "type": "function"
    },
    {
      "inputs": [
        {
          "internalType": "uint256",
          "name": "_amount",
          "type": "uint256"
        }
      ],
      "name": "unlockEther",
      "outputs": [],
      "stateMutability": "nonpayable",
      "type": "function"
    },
    {
      "inputs": [
        {
          "internalType": "address",
          "name": "_newOperator",
          "type": "address"
        }
      ],
      "name": "addOperator",
      "outputs": [],
      "stateMutability": "nonpayable",
      "type": "function"
    }
  ],
  "bytecode": "0x60c06040523373ffffffffffffffffffffffffffffffffffffffff1660a09073ffffffffffffffffffffffffffffffffffffffff168152503480156200004457600080fd5b506040516200253e3803806200253e83398181016040528101906200006a919062000499565b6040518060400160405280600d81526020017f57726170706564204574686572000000000000000000000000000000000000008152506040518060400160405280600481526020017f5745544800000000000000000000000000000000000000000000000000000000815250601260008360029081620000eb919062000735565b508260039081620000fd919062000735565b508160ff1660808160ff168152505080600481905550806000803373ffffffffffffffffffffffffffffffffffffffff1673ffffffffffffffffffffffffffffffffffffffff168152602001908152602001600020819055505050505060005b8151811015620002a35760001515600560008484815181106200018557620001846200081c565b5b602002602001015173ffffffffffffffffffffffffffffffffffffffff1673ffffffffffffffffffffffffffffffffffffffff16815260200190815260200160002060009054906101000a900460ff161515146200021a576040517f08c379a00000000000000000000000000000000000000000000000000000000081526004016200021190620008ac565b60405180910390fd5b6001600560008484815181106200023657620002356200081c565b5b602002602001015173ffffffffffffffffffffffffffffffffffffffff1673ffffffffffffffffffffffffffffffffffffffff16815260200190815260200160002060006101000a81548160ff021916908315150217905550806200029b90620008fd565b90506200015d565b50506200094a565b6000604051905090565b600080fd5b600080fd5b600080fd5b6000601f19601f8301169050919050565b7f4e487b7100000000000000000000000000000000000000000000000000000000600052604160045260246000fd5b6200030f82620002c4565b810181811067ffffffffffffffff82111715620003315762000330620002d5565b5b80604052505050565b600062000346620002ab565b905062000354828262000304565b919050565b600067ffffffffffffffff821115620003775762000376620002d5565b5b602082029050602081019050919050565b600080fd5b600073ffffffffffffffffffffffffffffffffffffffff82169050919050565b6000620003ba826200038d565b9050919050565b620003cc81620003ad565b8114620003d857600080fd5b50565b600081519050620003ec81620003c1565b92915050565b600062000409620004038462000359565b6200033a565b905080838252602082019050602084028301858111156200042f576200042e62000388565b5b835b818110156200045c5780620004478882620003db565b84526020840193505060208101905062000431565b5050509392505050565b600082601f8301126200047e576200047d620002bf565b5b815162000490848260208601620003f2565b91505092915050565b600060208284031215620004b257620004b1620002b5565b5b600082015167ffffffffffffffff811115620004d357620004d2620002ba565b5b620004e18482850162000466565b91505092915050565b600081519050919050565b7f4e487b7100000000000000000000000000000000000000000000000000000000600052602260045260246000fd5b600060028204905060018216806200053d57607f821691505b602082108103620005535762000552620004f5565b5b50919050565b60008190508160005260206000209050919050565b60006020601f8301049050919050565b600082821b905092915050565b600060088302620005bd7fffffffffffffffffffffffffffffffffffffffffffffffffffffffffffffffff826200057e565b620005c986836200057e565b95508019841693508086168417925050509392505050565b6000819050919050565b6000819050919050565b600062000616620006106200060a84620005e1565b620005eb565b620005e1565b9050919050565b6000819050919050565b6200063283620005f5565b6200064a62000641826200061d565b8484546200058b565b825550505050565b600090565b6200066162000652565b6200066e81848462000627565b505050565b5b8181101562000696576200068a60008262000657565b60018101905062000674565b5050565b601f821115620006e557620006af8162000559565b620006ba846200056e565b81016020851015620006ca578190505b620006e2620006d9856200056e565b83018262000673565b50505b505050565b600082821c905092915050565b60006200070a60001984600802620006ea565b1980831691505092915050565b6000620007258383620006f7565b9150826002028217905092915050565b6200074082620004ea565b67ffffffffffffffff8111156200075c576200075b620002d5565b5b62000768825462000524565b620007758282856200069a565b600060209050601f831160018114620007ad576000841562000798578287015190505b620007a4858262000717565b86555062000814565b601f198416620007bd8662000559565b60005b82811015620007e757848901518255600182019150602085019450602081019050620007c0565b8683101562000807578489015162000803601f891682620006f7565b8355505b6001600288020188555050505b505050505050565b7f4e487b7100000000000000000000000000000000000000000000000000000000600052603260045260246000fd5b600082825260208201905092915050565b7f4475706c6963617465206f70657261746f720000000000000000000000000000600082015250565b6000620008946012836200084b565b9150620008a1826200085c565b602082019050919050565b60006020820190508181036000830152620008c78162000885565b9050919050565b7f4e487b7100000000000000000000000000000000000000000000000000000000600052601160045260246000fd5b60006200090a82620005e1565b91507fffffffffffffffffffffffffffffffffffffffffffffffffffffffffffffffff82036200093f576200093e620008ce565b5b600182019050919050565b60805160a051611bc76200097760003960008181610a700152610bc701526000610a020152611bc76000f3fe608060405234801561001057600080fd5b50600436106100ea5760003560e01c806370a082311161008c57806395d89b411161006657806395d89b411461025f5780639870d7fe1461027d578063a9059cbb14610299578063dd62ed3e146102c9576100ea565b806370a08231146101f55780638da5cb5b1461022557806394bf804d14610243576100ea565b80630ab94086116100c85780630ab940861461016d57806318160ddd1461018957806323b872dd146101a7578063313ce567146101d7576100ea565b806301ffc9a7146100ef57806306fdde031461011f578063095ea7b31461013d575b600080fd5b6101096004803603810190610104919061128a565b6102f9565b60405161011691906112d2565b60405180910390f35b6101276103cb565b604051610134919061137d565b60405180910390f35b61015760048036038101906101529190611433565b61045d565b60405161016491906112d2565b60405180910390f35b61018760048036038101906101829190611473565b610606565b005b6101916106cf565b60405161019e91906114af565b60405180910390f35b6101c160048036038101906101bc91906114ca565b6106d9565b6040516101ce91906112d2565b60405180910390f35b6101df6109fe565b6040516101ec9190611539565b60405180910390f35b61020f600480360381019061020a9190611554565b610a26565b60405161021c91906114af565b60405180910390f35b61022d610a6e565b60405161023a9190611590565b60405180910390f35b61025d600480360381019061025891906115ab565b610a92565b005b610267610b33565b604051610274919061137d565b60405180910390f35b61029760048036038101906102929190611554565b610bc5565b005b6102b360048036038101906102ae9190611433565b610cae565b6040516102c091906112d2565b60405180910390f35b6102e360048036038101906102de91906115eb565b610f01565b6040516102f091906114af565b60405180910390f35b60007f36372b07000000000000000000000000000000000000000000000000000000007bffffffffffffffffffffffffffffffffffffffffffffffffffffffff1916827bffffffffffffffffffffffffffffffffffffffffffffffffffffffff191614806103c457507fa219a025000000000000000000000000000000000000000000000000000000007bffffffffffffffffffffffffffffffffffffffffffffffffffffffff1916827bffffffffffffffffffffffffffffffffffffffffffffffffffffffff1916145b9050919050565b6060600280546103da9061165a565b80601f01602080910402602001604051908101604052809291908181526020018280546104069061165a565b80156104535780601f1061042857610100808354040283529160200191610453565b820191906000526020600020905b81548152906001019060200180831161043657829003601f168201915b5050505050905090565b60008073ffffffffffffffffffffffffffffffffffffffff168373ffffffffffffffffffffffffffffffffffffffff16036104cd576040517f08c379a00000000000000000000000000000000000000000000000000000000081526004016104c4906116d7565b60405180910390fd5b60008211610510576040517f08c379a000000000000000000000000000000000000000000000000000000000815260040161050790611743565b60405180910390fd5b600033905082600160008373ffffffffffffffffffffffffffffffffffffffff1673ffffffffffffffffffffffffffffffffffffffff16815260200190815260200160002060008673ffffffffffffffffffffffffffffffffffffffff1673ffffffffffffffffffffffffffffffffffffffff168152602001908152602001600020819055508373ffffffffffffffffffffffffffffffffffffffff168173ffffffffffffffffffffffffffffffffffffffff167f8c5be1e5ebec7d5bd14f71427d1e84f3dd0314c0f7b2291e5b200ac8c7c3b925856040516105f391906114af565b60405180910390a3600191505092915050565b806000803373ffffffffffffffffffffffffffffffffffffffff1673ffffffffffffffffffffffffffffffffffffffff168152602001908152602001600020541015610687576040517f08c379a000000000000000000000000000000000000000000000000000000000815260040161067e906117af565b60405180910390fd5b6106913382610f88565b7f528751d4666051230623e43ec879eb65d659661fa3881b7d03d728da1f5659a53382426040516106c4939291906117cf565b60405180910390a150565b6000600454905090565b60008033905082600160008773ffffffffffffffffffffffffffffffffffffffff1673ffffffffffffffffffffffffffffffffffffffff16815260200190815260200160002060008373ffffffffffffffffffffffffffffffffffffffff1673ffffffffffffffffffffffffffffffffffffffff16815260200190815260200160002054101561079e576040517f08c379a000000000000000000000000000000000000000000000000000000000815260040161079590611852565b60405180910390fd5b600073ffffffffffffffffffffffffffffffffffffffff168473ffffffffffffffffffffffffffffffffffffffff160361080d576040517f08c379a0000000000000000000000000000000000000000000000000000000008152600401610804906118be565b60405180910390fd5b60008311610850576040517f08c379a000000000000000000000000000000000000000000000000000000000815260040161084790611743565b60405180910390fd5b82600160008773ffffffffffffffffffffffffffffffffffffffff1673ffffffffffffffffffffffffffffffffffffffff16815260200190815260200160002060008373ffffffffffffffffffffffffffffffffffffffff1673ffffffffffffffffffffffffffffffffffffffff16815260200190815260200160002060008282546108dc919061190d565b92505081905550826000808773ffffffffffffffffffffffffffffffffffffffff1673ffffffffffffffffffffffffffffffffffffffff1681526020019081526020016000206000828254610931919061190d565b92505081905550826000808673ffffffffffffffffffffffffffffffffffffffff1673ffffffffffffffffffffffffffffffffffffffff16815260200190815260200160002060008282546109869190611941565b925050819055508373ffffffffffffffffffffffffffffffffffffffff168573ffffffffffffffffffffffffffffffffffffffff167fddf252ad1be2c89b69c2b068fc378daa952ba7f163c4a11628f55a4df523b3ef856040516109ea91906114af565b60405180910390a360019150509392505050565b60007f0000000000000000000000000000000000000000000000000000000000000000905090565b60008060008373ffffffffffffffffffffffffffffffffffffffff1673ffffffffffffffffffffffffffffffffffffffff168152602001908152602001600020549050919050565b7f000000000000000000000000000000000000000000000000000000000000000081565b60011515600560003373ffffffffffffffffffffffffffffffffffffffff1673ffffffffffffffffffffffffffffffffffffffff16815260200190815260200160002060009054906101000a900460ff16151514610b25576040517f08c379a0000000000000000000000000000000000000000000000000000000008152600401610b1c906119c1565b60405180910390fd5b610b2f81836110a3565b5050565b606060038054610b429061165a565b80601f0160208091040260200160405190810160405280929190818152602001828054610b6e9061165a565b8015610bbb5780601f10610b9057610100808354040283529160200191610bbb565b820191906000526020600020905b815481529060010190602001808311610b9e57829003601f168201915b5050505050905090565b7f000000000000000000000000000000000000000000000000000000000000000073ffffffffffffffffffffffffffffffffffffffff163373ffffffffffffffffffffffffffffffffffffffff1614610c53576040517f08c379a0000000000000000000000000000000000000000000000000000000008152600401610c4a90611a2d565b60405180910390fd5b6001600560008373ffffffffffffffffffffffffffffffffffffffff1673ffffffffffffffffffffffffffffffffffffffff16815260200190815260200160002060006101000a81548160ff02191690831515021790555050565b600080339050826000808373ffffffffffffffffffffffffffffffffffffffff1673ffffffffffffffffffffffffffffffffffffffff168152602001908152602001600020541015610d35576040517f08c379a0000000000000000000000000000000000000000000000000000000008152600401610d2c90611a99565b60405180910390fd5b600073ffffffffffffffffffffffffffffffffffffffff168473ffffffffffffffffffffffffffffffffffffffff1603610da4576040517f08c379a0000000000000000000000000000000000000000000000000000000008152600401610d9b906118be565b60405180910390fd5b60008311610de7576040517f08c379a0000000000000000000000000000000000000000000000000000000008152600401610dde90611743565b60405180910390fd5b826000808373ffffffffffffffffffffffffffffffffffffffff1673ffffffffffffffffffffffffffffffffffffffff1681526020019081526020016000206000828254610e35919061190d565b92505081905550826000808673ffffffffffffffffffffffffffffffffffffffff1673ffffffffffffffffffffffffffffffffffffffff1681526020019081526020016000206000828254610e8a9190611941565b925050819055508373ffffffffffffffffffffffffffffffffffffffff168173ffffffffffffffffffffffffffffffffffffffff167fddf252ad1be2c89b69c2b068fc378daa952ba7f163c4a11628f55a4df523b3ef85604051610eee91906114af565b60405180910390a3600191505092915050565b6000600160008473ffffffffffffffffffffffffffffffffffffffff1673ffffffffffffffffffffffffffffffffffffffff16815260200190815260200160002060008373ffffffffffffffffffffffffffffffffffffffff1673ffffffffffffffffffffffffffffffffffffffff16815260200190815260200160002054905092915050565b60008111610fcb576040517f08c379a0000000000000000000000000000000000000000000000000000000008152600401610fc290611b05565b60405180910390fd5b8060046000828254610fdd919061190d565b92505081905550806000808473ffffffffffffffffffffffffffffffffffffffff1673ffffffffffffffffffffffffffffffffffffffff1681526020019081526020016000206000828254611032919061190d565b92505081905550600073ffffffffffffffffffffffffffffffffffffffff168273ffffffffffffffffffffffffffffffffffffffff167fddf252ad1be2c89b69c2b068fc378daa952ba7f163c4a11628f55a4df523b3ef8360405161109791906114af565b60405180910390a35050565b600073ffffffffffffffffffffffffffffffffffffffff168273ffffffffffffffffffffffffffffffffffffffff1603611112576040517f08c379a000000000000000000000000000000000000000000000000000000000815260040161110990611b71565b60405180910390fd5b60008111611155576040517f08c379a000000000000000000000000000000000000000000000000000000000815260040161114c90611b05565b60405180910390fd5b80600460008282546111679190611941565b92505081905550806000808473ffffffffffffffffffffffffffffffffffffffff1673ffffffffffffffffffffffffffffffffffffffff16815260200190815260200160002060008282546111bc9190611941565b925050819055508173ffffffffffffffffffffffffffffffffffffffff16600073ffffffffffffffffffffffffffffffffffffffff167fddf252ad1be2c89b69c2b068fc378daa952ba7f163c4a11628f55a4df523b3ef8360405161122191906114af565b60405180910390a35050565b600080fd5b60007fffffffff0000000000000000000000000000000000000000000000000000000082169050919050565b61126781611232565b811461127257600080fd5b50565b6000813590506112848161125e565b92915050565b6000602082840312156112a05761129f61122d565b5b60006112ae84828501611275565b91505092915050565b60008115159050919050565b6112cc816112b7565b82525050565b60006020820190506112e760008301846112c3565b92915050565b600081519050919050565b600082825260208201905092915050565b60005b8381101561132757808201518184015260208101905061130c565b60008484015250505050565b6000601f19601f8301169050919050565b600061134f826112ed565b61135981856112f8565b9350611369818560208601611309565b61137281611333565b840191505092915050565b600060208201905081810360008301526113978184611344565b905092915050565b600073ffffffffffffffffffffffffffffffffffffffff82169050919050565b60006113ca8261139f565b9050919050565b6113da816113bf565b81146113e557600080fd5b50565b6000813590506113f7816113d1565b92915050565b6000819050919050565b611410816113fd565b811461141b57600080fd5b50565b60008135905061142d81611407565b92915050565b6000806040838503121561144a5761144961122d565b5b6000611458858286016113e8565b92505060206114698582860161141e565b9150509250929050565b6000602082840312156114895761148861122d565b5b60006114978482850161141e565b91505092915050565b6114a9816113fd565b82525050565b60006020820190506114c460008301846114a0565b92915050565b6000806000606084860312156114e3576114e261122d565b5b60006114f1868287016113e8565b9350506020611502868287016113e8565b92505060406115138682870161141e565b9150509250925092565b600060ff82169050919050565b6115338161151d565b82525050565b600060208201905061154e600083018461152a565b92915050565b60006020828403121561156a5761156961122d565b5b6000611578848285016113e8565b91505092915050565b61158a816113bf565b82525050565b60006020820190506115a56000830184611581565b92915050565b600080604083850312156115c2576115c161122d565b5b60006115d08582860161141e565b92505060206115e1858286016113e8565b9150509250929050565b600080604083850312156116025761160161122d565b5b6000611610858286016113e8565b9250506020611621858286016113e8565b9150509250929050565b7f4e487b7100000000000000000000000000000000000000000000000000000000600052602260045260246000fd5b6000600282049050600182168061167257607f821691505b6020821081036116855761168461162b565b5b50919050565b7f496e76616c6964207370656e6465722061646472657373000000000000000000600082015250565b60006116c16017836112f8565b91506116cc8261168b565b602082019050919050565b600060208201905081810360008301526116f0816116b4565b9050919050565b7f746f6b656e203d3d203000000000000000000000000000000000000000000000600082015250565b600061172d600a836112f8565b9150611738826116f7565b602082019050919050565b6000602082019050818103600083015261175c81611720565b9050919050565b7f4e6f7420656e6f7567682062616c616e63650000000000000000000000000000600082015250565b60006117996012836112f8565b91506117a482611763565b602082019050919050565b600060208201905081810360008301526117c88161178c565b9050919050565b60006060820190506117e46000830186611581565b6117f160208301856114a0565b6117fe60408301846114a0565b949350505050565b7f496e73756666696369656e7420617070726f76616c20616d6f756e7400000000600082015250565b600061183c601c836112f8565b915061184782611806565b602082019050919050565b6000602082019050818103600083015261186b8161182f565b9050919050565b7f496e76616c696420746172676574206164647265737300000000000000000000600082015250565b60006118a86016836112f8565b91506118b382611872565b602082019050919050565b600060208201905081810360008301526118d78161189b565b9050919050565b7f4e487b7100000000000000000000000000000000000000000000000000000000600052601160045260246000fd5b6000611918826113fd565b9150611923836113fd565b925082820390508181111561193b5761193a6118de565b5b92915050565b600061194c826113fd565b9150611957836113fd565b925082820190508082111561196f5761196e6118de565b5b92915050565b7f4f6e6c79206f70657261746f7273000000000000000000000000000000000000600082015250565b60006119ab600e836112f8565b91506119b682611975565b602082019050919050565b600060208201905081810360008301526119da8161199e565b9050919050565b7f4f6e6c79206f776e657200000000000000000000000000000000000000000000600082015250565b6000611a17600a836112f8565b9150611a22826119e1565b602082019050919050565b60006020820190508181036000830152611a4681611a0a565b9050919050565b7f496e73756666696369656e742062616c616e6365000000000000000000000000600082015250565b6000611a836014836112f8565b9150611a8e82611a4d565b602082019050919050565b60006020820190508181036000830152611ab281611a76565b9050919050565b7f496e76616c696420746f6b656e20616d6f756e74000000000000000000000000600082015250565b6000611aef6014836112f8565b9150611afa82611ab9565b602082019050919050565b60006020820190508181036000830152611b1e81611ae2565b9050919050565b7f496e76616c696420616464726573730000000000000000000000000000000000600082015250565b6000611b5b600f836112f8565b9150611b6682611b25565b602082019050919050565b60006020820190508181036000830152611b8a81611b4e565b905091905056fea26469706673582212204e00d3cbd49285603019f9c701778b3a0cd014267c7e49b217b4bd26c6337feb64736f6c63430008110033",
  "immutableReferences": {
    "371": [
      {
        "length": 32,
        "start": 2562
      }
    ],
    "761": [
      {
        "length": 32,
        "start": 2672
      },
      {
        "length": 32,
        "start": 3015
      }
    ]
  },
  "source": "// SPDX-License-Identifier: GPL-3.0\r\npragma solidity ^0.8.0;\r\n\r\ninterface IERC20 {\r\n    event Transfer(address indexed from, address indexed to, uint value);\r\n    event Approval(address indexed owner, address indexed spender, uint value);\r\n\r\n    function totalSupply() external view returns(uint);\r\n    function balanceOf(address _account) external view returns(uint);\r\n    function transfer(address _to, uint _amount) external returns(bool);\r\n    function allowance(address _owner, address _spender) external view returns(uint);\r\n    function approve(address _spender, uint _amount) external returns(bool);\r\n    function transferFrom(\r\n        address _from,\r\n        address _to,\r\n        uint256 _amount\r\n    ) external returns(bool);\r\n}\r\n\r\ninterface IERC20Metadata is IERC20 {\r\n    function name() external view returns(string memory);\r\n    function symbol() external view returns(string memory);\r\n    function decimals() external view returns(uint8);\r\n}\r\n\r\ninterface IERC165 {\r\n    function supportsInterface(bytes4 interfaceId) external view returns(bool);\r\n}\r\n\r\ncontract ERC20 is IERC20Metadata, IERC165 {\r\n    // from user to his/her balance\r\n    mapping(address => uint) internal balances;\r\n    // from user to approved operator\r\n    mapping(address => mapping(address => uint)) private allowances;\r\n\r\n    string private _name;\r\n    string private _symbol;\r\n    uint8 private immutable _decimals;\r\n\r\n    uint private _totalSupply;\r\n\r\n    constructor(\r\n        string memory _tokenName,\r\n        string memory _tokenSymbol,\r\n        uint8 _tokenDecimals,\r\n        uint _tokenTotalSupply /// note must be in decimal format\r\n    ) {\r\n        _name = _tokenName;\r\n        _symbol = _tokenSymbol;\r\n        _decimals = _tokenDecimals;\r\n        _totalSupply = _tokenTotalSupply;\r\n\r\n        balances[msg.sender] = _tokenTotalSupply;\r\n    }\r\n\r\n    function name() external view returns(string memory) {\r\n        return _name;\r\n    }\r\n\r\n    function symbol() external view returns(string memory) {\r\n        return _symbol;\r\n    }\r\n\r\n    function totalSupply() external view returns(uint) {\r\n        return _totalSupply;\r\n    }\r\n\r\n    function decimals() external view returns(uint8) {\r\n        return _decimals;\r\n    }\r\n\r\n    function balanceOf(address _account) external view returns(uint) {\r\n        return balances[_account];\r\n    }\r\n\r\n    function allowance(address _owner, address _spender) external view returns(uint) {\r\n        return allowances[_owner][_spender];\r\n    }\r\n\r\n    function transfer(address _to, uint _amount) external returns(bool) {\r\n        address msgSender = msg.sender;\r\n        require(balances[msgSender] >= _amount, \"Insufficient balance\");\r\n        require(_to != address(0), \"Invalid target address\");\r\n        require(_amount > 0, \"token == 0\");\r\n\r\n        balances[msgSender] -= _amount;\r\n        balances[_to] += _amount;\r\n\r\n        emit Transfer({\r\n            from: msgSender,\r\n            to: _to,\r\n            value: _amount\r\n        });\r\n\r\n        return true;\r\n    }\r\n\r\n    function transferFrom(\r\n        address _from,\r\n        address _to,\r\n        uint256 _amount /// note must be in decimal format\r\n    ) external returns (bool) {\r\n        address msgSender = msg.sender;\r\n        require(allowances[_from][msgSender] >= _amount, \"Insufficient approval amount\");\r\n        require(_to != address(0), \"Invalid target address\");\r\n        require(_amount > 0, \"token == 0\");\r\n\r\n        allowances[_from][msgSender] -= _amount;\r\n\r\n        balances[_from] -= _amount;\r\n        balances[_to] += _amount;\r\n\r\n        emit Transfer({\r\n            from: _from,\r\n            to: _to,\r\n            value: _amount\r\n        });\r\n\r\n        return true;\r\n    }\r\n\r\n    function approve(address _spender, uint _amount) external returns(bool) {\r\n        require(_spender != address(0), \"Invalid spender address\");\r\n        require(_amount > 0, \"token == 0\");\r\n        address msgSender = msg.sender;\r\n\r\n        allowances[msgSender][_spender] = _amount;\r\n\r\n        emit Approval({\r\n            owner: msgSender,\r\n            spender: _spender,\r\n            value: _amount\r\n        });\r\n\r\n        return true;\r\n    }\r\n\r\n    function _mint(address _to, uint _amount) internal {\r\n        require(_to != address(0), \"Invalid address\");\r\n        require(_amount > 0, \"Invalid token amount\");\r\n\r\n        _totalSupply += _amount;\r\n\r\n        balances[_to] += _amount;\r\n\r\n        emit Transfer({\r\n            from: address(0),\r\n            to: _to,\r\n            value: _amount\r\n        });\r\n    }\r\n\r\n    function _burn(address _from, uint _amount) internal {\r\n        require(_amount > 0, \"Invalid token amount\");\r\n\r\n        _totalSupply -= _amount;\r\n\r\n        balances[_from] -= _amount;\r\n\r\n        emit Transfer({\r\n            from: _from,\r\n            to: address(0),\r\n            value: _amount\r\n        });\r\n    } \r\n\r\n    function supportsInterface(bytes4 _interfaceId) external pure returns(bool) {\r\n        return _interfaceId == type(IERC20).interfaceId || _interfaceId == type(IERC20Metadata).interfaceId;\r\n    }\r\n}\r\n\r\ncontract WETH is ERC20(\"Wrapped Ether\", \"WETH\", 18, 0) {\r\n    address public immutable owner = msg.sender;\r\n\r\n    mapping(address => bool) private oracleOperators;\r\n\r\n    event EtherUnlockingRequest(\r\n        address unlocker,\r\n        uint256 amount,\r\n        uint256 time\r\n    );\r\n\r\n    constructor(address[] memory _oracleOperators) {\r\n        for (uint256 i; i < _oracleOperators.length; ++i) {\r\n            require(\r\n                oracleOperators[_oracleOperators[i]] == false,\r\n                \"Duplicate operator\"\r\n            );\r\n\r\n            oracleOperators[_oracleOperators[i]] = true;\r\n        }\r\n    }\r\n\r\n    modifier onlyOwner() {\r\n        require(msg.sender == owner, \"Only owner\");\r\n        _;\r\n    }\r\n\r\n    modifier onlyOperators() {\r\n        require(oracleOperators[msg.sender] == true, \"Only operators\");\r\n        _;\r\n    }\r\n\r\n    function mint(\r\n        uint256 _wether,\r\n        address _to\r\n    ) external onlyOperators {\r\n        _mint(_to, _wether);\r\n    }\r\n\r\n    function unlockEther(uint256 _amount) external {\r\n        require(balances[msg.sender] >= _amount, \"Not enough balance\");\r\n\r\n        _burn(msg.sender, _amount);\r\n\r\n        emit EtherUnlockingRequest({\r\n            unlocker: msg.sender,\r\n            amount: _amount,\r\n            time: block.timestamp\r\n        });\r\n    }\r\n\r\n    function addOperator(address _newOperator) external onlyOwner {\r\n        oracleOperators[_newOperator] = true;\r\n    }\r\n}",
  "sourcePath": "C:\\Users\\PooriaGg\\Desktop\\Oracle_2\\contracts\\WrappedMatic.sol",
  "compiler": {
    "name": "solc",
    "version": "0.8.17+commit.8df45f5f.Emscripten.clang"
  },
  "schemaVersion": "3.4.11",
  "updatedAt": "2023-03-21T15:41:41.995Z",
  "devdoc": {
    "kind": "dev",
    "methods": {},
    "version": 1
  },
  "userdoc": {
    "kind": "user",
    "methods": {},
    "version": 1
  }
}